{
  "_format": "hh3-artifact-1",
  "contractName": "BasicNft",
  "sourceName": "contracts/BasicNft.sol",
  "abi": [
    {
      "inputs": [
        {
          "internalType": "string",
          "name": "name",
          "type": "string"
        },
        {
          "internalType": "string",
          "name": "symbol",
          "type": "string"
        }
      ],
      "stateMutability": "nonpayable",
      "type": "constructor"
    },
    {
      "inputs": [
        {
          "internalType": "address",
          "name": "sender",
          "type": "address"
        },
        {
          "internalType": "uint256",
          "name": "tokenId",
          "type": "uint256"
        },
        {
          "internalType": "address",
          "name": "owner",
          "type": "address"
        }
      ],
      "name": "ERC721IncorrectOwner",
      "type": "error"
    },
    {
      "inputs": [
        {
          "internalType": "address",
          "name": "operator",
          "type": "address"
        },
        {
          "internalType": "uint256",
          "name": "tokenId",
          "type": "uint256"
        }
      ],
      "name": "ERC721InsufficientApproval",
      "type": "error"
    },
    {
      "inputs": [
        {
          "internalType": "address",
          "name": "approver",
          "type": "address"
        }
      ],
      "name": "ERC721InvalidApprover",
      "type": "error"
    },
    {
      "inputs": [
        {
          "internalType": "address",
          "name": "operator",
          "type": "address"
        }
      ],
      "name": "ERC721InvalidOperator",
      "type": "error"
    },
    {
      "inputs": [
        {
          "internalType": "address",
          "name": "owner",
          "type": "address"
        }
      ],
      "name": "ERC721InvalidOwner",
      "type": "error"
    },
    {
      "inputs": [
        {
          "internalType": "address",
          "name": "receiver",
          "type": "address"
        }
      ],
      "name": "ERC721InvalidReceiver",
      "type": "error"
    },
    {
      "inputs": [
        {
          "internalType": "address",
          "name": "sender",
          "type": "address"
        }
      ],
      "name": "ERC721InvalidSender",
      "type": "error"
    },
    {
      "inputs": [
        {
          "internalType": "uint256",
          "name": "tokenId",
          "type": "uint256"
        }
      ],
      "name": "ERC721NonexistentToken",
      "type": "error"
    },
    {
      "anonymous": false,
      "inputs": [
        {
          "indexed": true,
          "internalType": "address",
          "name": "owner",
          "type": "address"
        },
        {
          "indexed": true,
          "internalType": "address",
          "name": "approved",
          "type": "address"
        },
        {
          "indexed": true,
          "internalType": "uint256",
          "name": "tokenId",
          "type": "uint256"
        }
      ],
      "name": "Approval",
      "type": "event"
    },
    {
      "anonymous": false,
      "inputs": [
        {
          "indexed": true,
          "internalType": "address",
          "name": "owner",
          "type": "address"
        },
        {
          "indexed": true,
          "internalType": "address",
          "name": "operator",
          "type": "address"
        },
        {
          "indexed": false,
          "internalType": "bool",
          "name": "approved",
          "type": "bool"
        }
      ],
      "name": "ApprovalForAll",
      "type": "event"
    },
    {
      "anonymous": false,
      "inputs": [
        {
          "indexed": true,
          "internalType": "address",
          "name": "from",
          "type": "address"
        },
        {
          "indexed": true,
          "internalType": "address",
          "name": "to",
          "type": "address"
        },
        {
          "indexed": true,
          "internalType": "uint256",
          "name": "tokenId",
          "type": "uint256"
        }
      ],
      "name": "Transfer",
      "type": "event"
    },
    {
      "inputs": [
        {
          "internalType": "address",
          "name": "to",
          "type": "address"
        },
        {
          "internalType": "uint256",
          "name": "tokenId",
          "type": "uint256"
        }
      ],
      "name": "approve",
      "outputs": [],
      "stateMutability": "nonpayable",
      "type": "function"
    },
    {
      "inputs": [
        {
          "internalType": "address",
          "name": "owner",
          "type": "address"
        }
      ],
      "name": "balanceOf",
      "outputs": [
        {
          "internalType": "uint256",
          "name": "",
          "type": "uint256"
        }
      ],
      "stateMutability": "view",
      "type": "function"
    },
    {
      "inputs": [
        {
          "internalType": "uint256",
          "name": "tokenId",
          "type": "uint256"
        }
      ],
      "name": "getApproved",
      "outputs": [
        {
          "internalType": "address",
          "name": "",
          "type": "address"
        }
      ],
      "stateMutability": "view",
      "type": "function"
    },
    {
      "inputs": [
        {
          "internalType": "address",
          "name": "owner",
          "type": "address"
        },
        {
          "internalType": "address",
          "name": "operator",
          "type": "address"
        }
      ],
      "name": "isApprovedForAll",
      "outputs": [
        {
          "internalType": "bool",
          "name": "",
          "type": "bool"
        }
      ],
      "stateMutability": "view",
      "type": "function"
    },
    {
      "inputs": [
        {
          "internalType": "string",
          "name": "_tokenUri",
          "type": "string"
        }
      ],
      "name": "mintNft",
      "outputs": [],
      "stateMutability": "nonpayable",
      "type": "function"
    },
    {
      "inputs": [],
      "name": "name",
      "outputs": [
        {
          "internalType": "string",
          "name": "",
          "type": "string"
        }
      ],
      "stateMutability": "view",
      "type": "function"
    },
    {
      "inputs": [
        {
          "internalType": "uint256",
          "name": "tokenId",
          "type": "uint256"
        }
      ],
      "name": "ownerOf",
      "outputs": [
        {
          "internalType": "address",
          "name": "",
          "type": "address"
        }
      ],
      "stateMutability": "view",
      "type": "function"
    },
    {
      "inputs": [
        {
          "internalType": "address",
          "name": "from",
          "type": "address"
        },
        {
          "internalType": "address",
          "name": "to",
          "type": "address"
        },
        {
          "internalType": "uint256",
          "name": "tokenId",
          "type": "uint256"
        }
      ],
      "name": "safeTransferFrom",
      "outputs": [],
      "stateMutability": "nonpayable",
      "type": "function"
    },
    {
      "inputs": [
        {
          "internalType": "address",
          "name": "from",
          "type": "address"
        },
        {
          "internalType": "address",
          "name": "to",
          "type": "address"
        },
        {
          "internalType": "uint256",
          "name": "tokenId",
          "type": "uint256"
        },
        {
          "internalType": "bytes",
          "name": "data",
          "type": "bytes"
        }
      ],
      "name": "safeTransferFrom",
      "outputs": [],
      "stateMutability": "nonpayable",
      "type": "function"
    },
    {
      "inputs": [
        {
          "internalType": "address",
          "name": "operator",
          "type": "address"
        },
        {
          "internalType": "bool",
          "name": "approved",
          "type": "bool"
        }
      ],
      "name": "setApprovalForAll",
      "outputs": [],
      "stateMutability": "nonpayable",
      "type": "function"
    },
    {
      "inputs": [
        {
          "internalType": "bytes4",
          "name": "interfaceId",
          "type": "bytes4"
        }
      ],
      "name": "supportsInterface",
      "outputs": [
        {
          "internalType": "bool",
          "name": "",
          "type": "bool"
        }
      ],
      "stateMutability": "view",
      "type": "function"
    },
    {
      "inputs": [],
      "name": "symbol",
      "outputs": [
        {
          "internalType": "string",
          "name": "",
          "type": "string"
        }
      ],
      "stateMutability": "view",
      "type": "function"
    },
    {
      "inputs": [],
      "name": "tokenCount",
      "outputs": [
        {
          "internalType": "uint256",
          "name": "",
          "type": "uint256"
        }
      ],
      "stateMutability": "view",
      "type": "function"
    },
    {
      "inputs": [
        {
          "internalType": "uint256",
          "name": "tokenId",
          "type": "uint256"
        }
      ],
      "name": "tokenURI",
      "outputs": [
        {
          "internalType": "string",
          "name": "",
          "type": "string"
        }
      ],
      "stateMutability": "view",
      "type": "function"
    },
    {
      "inputs": [
        {
          "internalType": "uint256",
          "name": "tokenId",
          "type": "uint256"
        }
      ],
      "name": "tokenUri",
      "outputs": [
        {
          "internalType": "string",
          "name": "",
          "type": "string"
        }
      ],
      "stateMutability": "view",
      "type": "function"
    },
    {
      "inputs": [
        {
          "internalType": "address",
          "name": "from",
          "type": "address"
        },
        {
          "internalType": "address",
          "name": "to",
          "type": "address"
        },
        {
          "internalType": "uint256",
          "name": "tokenId",
          "type": "uint256"
        }
      ],
      "name": "transferFrom",
      "outputs": [],
      "stateMutability": "nonpayable",
      "type": "function"
    }
  ],
  "bytecode": "0x608060405234801561000f575f5ffd5b5060405161146038038061146083398101604081905261002e916100f4565b81815f61003b83826101dd565b50600161004882826101dd565b50505f60065550610297915050565b634e487b7160e01b5f52604160045260245ffd5b5f82601f83011261007a575f5ffd5b81516001600160401b0381111561009357610093610057565b604051601f8201601f19908116603f011681016001600160401b03811182821017156100c1576100c1610057565b6040528181528382016020018510156100d8575f5ffd5b8160208501602083015e5f918101602001919091529392505050565b5f5f60408385031215610105575f5ffd5b82516001600160401b0381111561011a575f5ffd5b6101268582860161006b565b602085015190935090506001600160401b03811115610143575f5ffd5b61014f8582860161006b565b9150509250929050565b600181811c9082168061016d57607f821691505b60208210810361018b57634e487b7160e01b5f52602260045260245ffd5b50919050565b601f8211156101d857805f5260205f20601f840160051c810160208510156101b65750805b601f840160051c820191505b818110156101d5575f81556001016101c2565b50505b505050565b81516001600160401b038111156101f6576101f6610057565b61020a816102048454610159565b84610191565b6020601f82116001811461023c575f83156102255750848201515b5f19600385901b1c1916600184901b1784556101d5565b5f84815260208120601f198516915b8281101561026b578785015182556020948501946001909201910161024b565b508482101561028857868401515f19600387901b60f8161c191681555b50505050600190811b01905550565b6111bc806102a45f395ff3fe608060405234801561000f575f5ffd5b50600436106100fb575f3560e01c806370a0823111610093578063b88d4fde11610063578063b88d4fde1461020c578063c87b56dd1461021f578063da86f4a914610232578063e985e9c514610245575f5ffd5b806370a08231146101c857806395d89b41146101e95780639f181b5e146101f1578063a22cb465146101f9575f5ffd5b80631675f455116100ce5780631675f4551461017c57806323b872dd1461018f57806342842e0e146101a25780636352211e146101b5575f5ffd5b806301ffc9a7146100ff57806306fdde0314610127578063081812fc1461013c578063095ea7b314610167575b5f5ffd5b61011261010d366004610cf0565b610258565b60405190151581526020015b60405180910390f35b61012f6102a9565b60405161011e9190610d39565b61014f61014a366004610d4b565b610338565b6040516001600160a01b03909116815260200161011e565b61017a610175366004610d7d565b61035f565b005b61012f61018a366004610d4b565b61036e565b61017a61019d366004610da5565b61040d565b61017a6101b0366004610da5565b61049b565b61014f6101c3366004610d4b565b6104ba565b6101db6101d6366004610ddf565b6104c4565b60405190815260200161011e565b61012f610509565b6006546101db565b61017a610207366004610df8565b610518565b61017a61021a366004610ebc565b610523565b61012f61022d366004610d4b565b61053b565b61017a610240366004610f33565b6105ac565b610112610253366004610f78565b6105ea565b5f6001600160e01b031982166380ac58cd60e01b148061028857506001600160e01b03198216635b5e139f60e01b145b806102a357506301ffc9a760e01b6001600160e01b03198316145b92915050565b60605f80546102b790610fa9565b80601f01602080910402602001604051908101604052809291908181526020018280546102e390610fa9565b801561032e5780601f106103055761010080835404028352916020019161032e565b820191905f5260205f20905b81548152906001019060200180831161031157829003601f168201915b5050505050905090565b5f61034282610617565b505f828152600460205260409020546001600160a01b03166102a3565b61036a82823361064f565b5050565b5f81815260076020526040902080546060919061038a90610fa9565b80601f01602080910402602001604051908101604052809291908181526020018280546103b690610fa9565b80156104015780601f106103d857610100808354040283529160200191610401565b820191905f5260205f20905b8154815290600101906020018083116103e457829003601f168201915b50505050509050919050565b6001600160a01b03821661043b57604051633250574960e11b81525f60048201526024015b60405180910390fd5b5f61044783833361065c565b9050836001600160a01b0316816001600160a01b031614610495576040516364283d7b60e01b81526001600160a01b0380861660048301526024820184905282166044820152606401610432565b50505050565b6104b583838360405180602001604052805f815250610523565b505050565b5f6102a382610617565b5f6001600160a01b0382166104ee576040516322718ad960e21b81525f6004820152602401610432565b506001600160a01b03165f9081526003602052604090205490565b6060600180546102b790610fa9565b61036a33838361074e565b61052e84848461040d565b61049533858585856107ec565b606061054682610617565b505f61055c60408051602081019091525f815290565b90505f81511161057a5760405180602001604052805f8152506105a5565b8061058484610914565b604051602001610595929190610ff8565b6040516020818303038152906040525b9392505050565b6006545f9081526007602052604090206105c68282611050565b506105d3336006546109a4565b60068054905f6105e28361110b565b919050555050565b6001600160a01b039182165f90815260056020908152604080832093909416825291909152205460ff1690565b5f818152600260205260408120546001600160a01b0316806102a357604051637e27328960e01b815260048101849052602401610432565b6104b583838360016109bd565b5f828152600260205260408120546001600160a01b039081169083161561068857610688818486610ac1565b6001600160a01b038116156106c2576106a35f855f5f6109bd565b6001600160a01b0381165f90815260036020526040902080545f190190555b6001600160a01b038516156106f0576001600160a01b0385165f908152600360205260409020805460010190555b5f8481526002602052604080822080546001600160a01b0319166001600160a01b0389811691821790925591518793918516917fddf252ad1be2c89b69c2b068fc378daa952ba7f163c4a11628f55a4df523b3ef91a4949350505050565b6001600160a01b03821661078057604051630b61174360e31b81526001600160a01b0383166004820152602401610432565b6001600160a01b038381165f81815260056020908152604080832094871680845294825291829020805460ff191686151590811790915591519182527f17307eab39ab6107e8899845ad3d59bd9653f200f220920489ca2b5937696c31910160405180910390a3505050565b6001600160a01b0383163b1561090d57604051630a85bd0160e11b81526001600160a01b0384169063150b7a029061082e90889088908790879060040161112f565b6020604051808303815f875af1925050508015610868575060408051601f3d908101601f191682019092526108659181019061116b565b60015b6108cf573d808015610895576040519150601f19603f3d011682016040523d82523d5f602084013e61089a565b606091505b5080515f036108c757604051633250574960e11b81526001600160a01b0385166004820152602401610432565b805160208201fd5b6001600160e01b03198116630a85bd0160e11b1461090b57604051633250574960e11b81526001600160a01b0385166004820152602401610432565b505b5050505050565b60605f61092083610b25565b60010190505f8167ffffffffffffffff81111561093f5761093f610e31565b6040519080825280601f01601f191660200182016040528015610969576020820181803683370190505b5090508181016020015b5f19016f181899199a1a9b1b9c1cb0b131b232b360811b600a86061a8153600a850494508461097357509392505050565b61036a828260405180602001604052805f815250610bfc565b80806109d157506001600160a01b03821615155b15610a92575f6109e084610617565b90506001600160a01b03831615801590610a0c5750826001600160a01b0316816001600160a01b031614155b8015610a1f5750610a1d81846105ea565b155b15610a485760405163a9fbf51f60e01b81526001600160a01b0384166004820152602401610432565b8115610a905783856001600160a01b0316826001600160a01b03167f8c5be1e5ebec7d5bd14f71427d1e84f3dd0314c0f7b2291e5b200ac8c7c3b92560405160405180910390a45b505b50505f90815260046020526040902080546001600160a01b0319166001600160a01b0392909216919091179055565b610acc838383610c13565b6104b5576001600160a01b038316610afa57604051637e27328960e01b815260048101829052602401610432565b60405163177e802f60e01b81526001600160a01b038316600482015260248101829052604401610432565b5f8072184f03e93ff9f4daa797ed6e38ed64bf6a1f0160401b8310610b635772184f03e93ff9f4daa797ed6e38ed64bf6a1f0160401b830492506040015b6d04ee2d6d415b85acef81000000008310610b8f576d04ee2d6d415b85acef8100000000830492506020015b662386f26fc100008310610bad57662386f26fc10000830492506010015b6305f5e1008310610bc5576305f5e100830492506008015b6127108310610bd957612710830492506004015b60648310610beb576064830492506002015b600a83106102a35760010192915050565b610c068383610c77565b6104b5335f8585856107ec565b5f6001600160a01b03831615801590610c6f5750826001600160a01b0316846001600160a01b03161480610c4c5750610c4c84846105ea565b80610c6f57505f828152600460205260409020546001600160a01b038481169116145b949350505050565b6001600160a01b038216610ca057604051633250574960e11b81525f6004820152602401610432565b5f610cac83835f61065c565b90506001600160a01b038116156104b5576040516339e3563760e11b81525f6004820152602401610432565b6001600160e01b031981168114610ced575f5ffd5b50565b5f60208284031215610d00575f5ffd5b81356105a581610cd8565b5f81518084528060208401602086015e5f602082860101526020601f19601f83011685010191505092915050565b602081525f6105a56020830184610d0b565b5f60208284031215610d5b575f5ffd5b5035919050565b80356001600160a01b0381168114610d78575f5ffd5b919050565b5f5f60408385031215610d8e575f5ffd5b610d9783610d62565b946020939093013593505050565b5f5f5f60608486031215610db7575f5ffd5b610dc084610d62565b9250610dce60208501610d62565b929592945050506040919091013590565b5f60208284031215610def575f5ffd5b6105a582610d62565b5f5f60408385031215610e09575f5ffd5b610e1283610d62565b915060208301358015158114610e26575f5ffd5b809150509250929050565b634e487b7160e01b5f52604160045260245ffd5b5f5f67ffffffffffffffff841115610e5f57610e5f610e31565b50604051601f19601f85018116603f0116810181811067ffffffffffffffff82111715610e8e57610e8e610e31565b604052838152905080828401851015610ea5575f5ffd5b838360208301375f60208583010152509392505050565b5f5f5f5f60808587031215610ecf575f5ffd5b610ed885610d62565b9350610ee660208601610d62565b925060408501359150606085013567ffffffffffffffff811115610f08575f5ffd5b8501601f81018713610f18575f5ffd5b610f2787823560208401610e45565b91505092959194509250565b5f60208284031215610f43575f5ffd5b813567ffffffffffffffff811115610f59575f5ffd5b8201601f81018413610f69575f5ffd5b610c6f84823560208401610e45565b5f5f60408385031215610f89575f5ffd5b610f9283610d62565b9150610fa060208401610d62565b90509250929050565b600181811c90821680610fbd57607f821691505b602082108103610fdb57634e487b7160e01b5f52602260045260245ffd5b50919050565b5f81518060208401855e5f93019283525090919050565b5f610c6f6110068386610fe1565b84610fe1565b601f8211156104b557805f5260205f20601f840160051c810160208510156110315750805b601f840160051c820191505b8181101561090d575f815560010161103d565b815167ffffffffffffffff81111561106a5761106a610e31565b61107e816110788454610fa9565b8461100c565b6020601f8211600181146110b0575f83156110995750848201515b5f19600385901b1c1916600184901b17845561090d565b5f84815260208120601f198516915b828110156110df57878501518255602094850194600190920191016110bf565b50848210156110fc57868401515f19600387901b60f8161c191681555b50505050600190811b01905550565b5f6001820161112857634e487b7160e01b5f52601160045260245ffd5b5060010190565b6001600160a01b03858116825284166020820152604081018390526080606082018190525f9061116190830184610d0b565b9695505050505050565b5f6020828403121561117b575f5ffd5b81516105a581610cd856fea26469706673582212206c8d4856ff81be2c73c4ed5ef232594ed5c2989b709001325c0db6196873f6e864736f6c634300081c0033",
  "linkReferences": {},
  "deployedLinkReferences": {},
  "immutableReferences": {},
  "inputSourceName": "project/contracts/BasicNft.sol",
  "buildInfoId": "solc-0_8_28-ed9391e85f3f0b3356ca73fc25410bcbf1c79dcf"
}