{
  "_format": "hh3-artifact-1",
  "contractName": "MoodNft",
  "sourceName": "contracts/MoodNft.sol",
  "abi": [
    {
      "inputs": [
        {
          "internalType": "string",
          "name": "happySvg",
          "type": "string"
        },
        {
          "internalType": "string",
          "name": "sadSvg",
          "type": "string"
        }
      ],
      "stateMutability": "nonpayable",
      "type": "constructor"
    },
    {
      "inputs": [
        {
          "internalType": "address",
          "name": "sender",
          "type": "address"
        },
        {
          "internalType": "uint256",
          "name": "tokenId",
          "type": "uint256"
        },
        {
          "internalType": "address",
          "name": "owner",
          "type": "address"
        }
      ],
      "name": "ERC721IncorrectOwner",
      "type": "error"
    },
    {
      "inputs": [
        {
          "internalType": "address",
          "name": "operator",
          "type": "address"
        },
        {
          "internalType": "uint256",
          "name": "tokenId",
          "type": "uint256"
        }
      ],
      "name": "ERC721InsufficientApproval",
      "type": "error"
    },
    {
      "inputs": [
        {
          "internalType": "address",
          "name": "approver",
          "type": "address"
        }
      ],
      "name": "ERC721InvalidApprover",
      "type": "error"
    },
    {
      "inputs": [
        {
          "internalType": "address",
          "name": "operator",
          "type": "address"
        }
      ],
      "name": "ERC721InvalidOperator",
      "type": "error"
    },
    {
      "inputs": [
        {
          "internalType": "address",
          "name": "owner",
          "type": "address"
        }
      ],
      "name": "ERC721InvalidOwner",
      "type": "error"
    },
    {
      "inputs": [
        {
          "internalType": "address",
          "name": "receiver",
          "type": "address"
        }
      ],
      "name": "ERC721InvalidReceiver",
      "type": "error"
    },
    {
      "inputs": [
        {
          "internalType": "address",
          "name": "sender",
          "type": "address"
        }
      ],
      "name": "ERC721InvalidSender",
      "type": "error"
    },
    {
      "inputs": [
        {
          "internalType": "uint256",
          "name": "tokenId",
          "type": "uint256"
        }
      ],
      "name": "ERC721NonexistentToken",
      "type": "error"
    },
    {
      "inputs": [],
      "name": "MoodNft__NonExistentToken",
      "type": "error"
    },
    {
      "inputs": [],
      "name": "MoodNft__NotAuthorized",
      "type": "error"
    },
    {
      "anonymous": false,
      "inputs": [
        {
          "indexed": true,
          "internalType": "address",
          "name": "owner",
          "type": "address"
        },
        {
          "indexed": true,
          "internalType": "address",
          "name": "approved",
          "type": "address"
        },
        {
          "indexed": true,
          "internalType": "uint256",
          "name": "tokenId",
          "type": "uint256"
        }
      ],
      "name": "Approval",
      "type": "event"
    },
    {
      "anonymous": false,
      "inputs": [
        {
          "indexed": true,
          "internalType": "address",
          "name": "owner",
          "type": "address"
        },
        {
          "indexed": true,
          "internalType": "address",
          "name": "operator",
          "type": "address"
        },
        {
          "indexed": false,
          "internalType": "bool",
          "name": "approved",
          "type": "bool"
        }
      ],
      "name": "ApprovalForAll",
      "type": "event"
    },
    {
      "anonymous": false,
      "inputs": [
        {
          "indexed": false,
          "internalType": "enum MoodNft.NftState",
          "name": "currentMood",
          "type": "uint8"
        },
        {
          "indexed": false,
          "internalType": "uint256",
          "name": "tokenId",
          "type": "uint256"
        }
      ],
      "name": "MoodFlipped",
      "type": "event"
    },
    {
      "anonymous": false,
      "inputs": [
        {
          "indexed": false,
          "internalType": "address",
          "name": "owner",
          "type": "address"
        },
        {
          "indexed": false,
          "internalType": "uint256",
          "name": "tokenId",
          "type": "uint256"
        }
      ],
      "name": "NftMinted",
      "type": "event"
    },
    {
      "anonymous": false,
      "inputs": [
        {
          "indexed": true,
          "internalType": "address",
          "name": "from",
          "type": "address"
        },
        {
          "indexed": true,
          "internalType": "address",
          "name": "to",
          "type": "address"
        },
        {
          "indexed": true,
          "internalType": "uint256",
          "name": "tokenId",
          "type": "uint256"
        }
      ],
      "name": "Transfer",
      "type": "event"
    },
    {
      "inputs": [
        {
          "internalType": "address",
          "name": "to",
          "type": "address"
        },
        {
          "internalType": "uint256",
          "name": "tokenId",
          "type": "uint256"
        }
      ],
      "name": "approve",
      "outputs": [],
      "stateMutability": "nonpayable",
      "type": "function"
    },
    {
      "inputs": [
        {
          "internalType": "address",
          "name": "owner",
          "type": "address"
        }
      ],
      "name": "balanceOf",
      "outputs": [
        {
          "internalType": "uint256",
          "name": "",
          "type": "uint256"
        }
      ],
      "stateMutability": "view",
      "type": "function"
    },
    {
      "inputs": [
        {
          "internalType": "uint256",
          "name": "tokenId",
          "type": "uint256"
        }
      ],
      "name": "currentNftState",
      "outputs": [
        {
          "internalType": "enum MoodNft.NftState",
          "name": "",
          "type": "uint8"
        }
      ],
      "stateMutability": "view",
      "type": "function"
    },
    {
      "inputs": [
        {
          "internalType": "uint256",
          "name": "tokenId",
          "type": "uint256"
        }
      ],
      "name": "flipMood",
      "outputs": [],
      "stateMutability": "nonpayable",
      "type": "function"
    },
    {
      "inputs": [
        {
          "internalType": "uint256",
          "name": "tokenId",
          "type": "uint256"
        }
      ],
      "name": "getApproved",
      "outputs": [
        {
          "internalType": "address",
          "name": "",
          "type": "address"
        }
      ],
      "stateMutability": "view",
      "type": "function"
    },
    {
      "inputs": [],
      "name": "happySvgImageUri",
      "outputs": [
        {
          "internalType": "string",
          "name": "",
          "type": "string"
        }
      ],
      "stateMutability": "view",
      "type": "function"
    },
    {
      "inputs": [
        {
          "internalType": "address",
          "name": "owner",
          "type": "address"
        },
        {
          "internalType": "address",
          "name": "operator",
          "type": "address"
        }
      ],
      "name": "isApprovedForAll",
      "outputs": [
        {
          "internalType": "bool",
          "name": "",
          "type": "bool"
        }
      ],
      "stateMutability": "view",
      "type": "function"
    },
    {
      "inputs": [],
      "name": "mintNft",
      "outputs": [],
      "stateMutability": "nonpayable",
      "type": "function"
    },
    {
      "inputs": [],
      "name": "name",
      "outputs": [
        {
          "internalType": "string",
          "name": "",
          "type": "string"
        }
      ],
      "stateMutability": "view",
      "type": "function"
    },
    {
      "inputs": [
        {
          "internalType": "uint256",
          "name": "tokenId",
          "type": "uint256"
        }
      ],
      "name": "ownerOf",
      "outputs": [
        {
          "internalType": "address",
          "name": "",
          "type": "address"
        }
      ],
      "stateMutability": "view",
      "type": "function"
    },
    {
      "inputs": [],
      "name": "sadSvgImageUri",
      "outputs": [
        {
          "internalType": "string",
          "name": "",
          "type": "string"
        }
      ],
      "stateMutability": "view",
      "type": "function"
    },
    {
      "inputs": [
        {
          "internalType": "address",
          "name": "from",
          "type": "address"
        },
        {
          "internalType": "address",
          "name": "to",
          "type": "address"
        },
        {
          "internalType": "uint256",
          "name": "tokenId",
          "type": "uint256"
        }
      ],
      "name": "safeTransferFrom",
      "outputs": [],
      "stateMutability": "nonpayable",
      "type": "function"
    },
    {
      "inputs": [
        {
          "internalType": "address",
          "name": "from",
          "type": "address"
        },
        {
          "internalType": "address",
          "name": "to",
          "type": "address"
        },
        {
          "internalType": "uint256",
          "name": "tokenId",
          "type": "uint256"
        },
        {
          "internalType": "bytes",
          "name": "data",
          "type": "bytes"
        }
      ],
      "name": "safeTransferFrom",
      "outputs": [],
      "stateMutability": "nonpayable",
      "type": "function"
    },
    {
      "inputs": [
        {
          "internalType": "address",
          "name": "operator",
          "type": "address"
        },
        {
          "internalType": "bool",
          "name": "approved",
          "type": "bool"
        }
      ],
      "name": "setApprovalForAll",
      "outputs": [],
      "stateMutability": "nonpayable",
      "type": "function"
    },
    {
      "inputs": [
        {
          "internalType": "bytes4",
          "name": "interfaceId",
          "type": "bytes4"
        }
      ],
      "name": "supportsInterface",
      "outputs": [
        {
          "internalType": "bool",
          "name": "",
          "type": "bool"
        }
      ],
      "stateMutability": "view",
      "type": "function"
    },
    {
      "inputs": [],
      "name": "symbol",
      "outputs": [
        {
          "internalType": "string",
          "name": "",
          "type": "string"
        }
      ],
      "stateMutability": "view",
      "type": "function"
    },
    {
      "inputs": [],
      "name": "tokenCounter",
      "outputs": [
        {
          "internalType": "uint256",
          "name": "",
          "type": "uint256"
        }
      ],
      "stateMutability": "view",
      "type": "function"
    },
    {
      "inputs": [
        {
          "internalType": "uint256",
          "name": "tokenId",
          "type": "uint256"
        }
      ],
      "name": "tokenURI",
      "outputs": [
        {
          "internalType": "string",
          "name": "",
          "type": "string"
        }
      ],
      "stateMutability": "view",
      "type": "function"
    },
    {
      "inputs": [
        {
          "internalType": "address",
          "name": "from",
          "type": "address"
        },
        {
          "internalType": "address",
          "name": "to",
          "type": "address"
        },
        {
          "internalType": "uint256",
          "name": "tokenId",
          "type": "uint256"
        }
      ],
      "name": "transferFrom",
      "outputs": [],
      "stateMutability": "nonpayable",
      "type": "function"
    }
  ],
  "bytecode": "0x608060405234801561000f575f5ffd5b5060405161184738038061184783398101604081905261002e91610148565b60405180604001604052806007815260200166135bdbd913999d60ca1b8152506040518060400160405280600381526020016226a7a760e91b815250815f90816100789190610231565b5060016100858282610231565b506007915061009690508382610231565b5060086100a38282610231565b5050506102eb565b634e487b7160e01b5f52604160045260245ffd5b5f82601f8301126100ce575f5ffd5b81516001600160401b038111156100e7576100e76100ab565b604051601f8201601f19908116603f011681016001600160401b0381118282101715610115576101156100ab565b60405281815283820160200185101561012c575f5ffd5b8160208501602083015e5f918101602001919091529392505050565b5f5f60408385031215610159575f5ffd5b82516001600160401b0381111561016e575f5ffd5b61017a858286016100bf565b602085015190935090506001600160401b03811115610197575f5ffd5b6101a3858286016100bf565b9150509250929050565b600181811c908216806101c157607f821691505b6020821081036101df57634e487b7160e01b5f52602260045260245ffd5b50919050565b601f82111561022c57805f5260205f20601f840160051c8101602085101561020a5750805b601f840160051c820191505b81811015610229575f8155600101610216565b50505b505050565b81516001600160401b0381111561024a5761024a6100ab565b61025e8161025884546101ad565b846101e5565b6020601f821160018114610290575f83156102795750848201515b5f19600385901b1c1916600184901b178455610229565b5f84815260208120601f198516915b828110156102bf578785015182556020948501946001909201910161029f565b50848210156102dc57868401515f19600387901b60f8161c191681555b50505050600190811b01905550565b61154f806102f85f395ff3fe608060405234801561000f575f5ffd5b506004361061011c575f3560e01c806395d89b41116100a9578063c87b56dd1161006e578063c87b56dd1461026f578063cbb3cf0014610282578063d082e3811461028a578063d569d0f814610292578063e985e9c51461029a575f5ffd5b806395d89b4114610226578063a22cb4651461022e578063b88d4fde14610241578063c1a147a014610254578063c2229fea14610267575f5ffd5b806323b872dd116100ef57806323b872dd1461019d57806342842e0e146101b0578063499ebfe5146101c35780636352211e146101f257806370a0823114610205575f5ffd5b806301ffc9a71461012057806306fdde0314610148578063081812fc1461015d578063095ea7b314610188575b5f5ffd5b61013361012e366004610fe6565b6102ad565b60405190151581526020015b60405180910390f35b6101506102fe565b60405161013f919061102f565b61017061016b366004611041565b61038d565b6040516001600160a01b03909116815260200161013f565b61019b610196366004611073565b6103b4565b005b61019b6101ab36600461109b565b6103c3565b61019b6101be36600461109b565b610451565b6101e56101d1366004611041565b5f9081526009602052604090205460ff1690565b60405161013f9190611109565b610170610200366004611041565b610470565b610218610213366004611117565b61047a565b60405190815260200161013f565b6101506104bf565b61019b61023c366004611130565b6104ce565b61019b61024f36600461117d565b6104d9565b61019b610262366004611041565b6104f1565b61019b610600565b61015061027d366004611041565b61068c565b610150610886565b600654610218565b610150610895565b6101336102a836600461125a565b6108a4565b5f6001600160e01b031982166380ac58cd60e01b14806102dd57506001600160e01b03198216635b5e139f60e01b145b806102f857506301ffc9a760e01b6001600160e01b03198316145b92915050565b60605f805461030c9061128b565b80601f01602080910402602001604051908101604052809291908181526020018280546103389061128b565b80156103835780601f1061035a57610100808354040283529160200191610383565b820191905f5260205f20905b81548152906001019060200180831161036657829003601f168201915b5050505050905090565b5f610397826108d1565b505f828152600460205260409020546001600160a01b03166102f8565b6103bf828233610909565b5050565b6001600160a01b0382166103f157604051633250574960e11b81525f60048201526024015b60405180910390fd5b5f6103fd838333610916565b9050836001600160a01b0316816001600160a01b03161461044b576040516364283d7b60e01b81526001600160a01b03808616600483015260248201849052821660448201526064016103e8565b50505050565b61046b83838360405180602001604052805f8152506104d9565b505050565b5f6102f8826108d1565b5f6001600160a01b0382166104a4576040516322718ad960e21b81525f60048201526024016103e8565b506001600160a01b03165f9081526003602052604090205490565b60606001805461030c9061128b565b6103bf338383610a0a565b6104e48484846103c3565b61044b3385858585610aa8565b8060065481106105145760405163d1038a6960e01b815260040160405180910390fd5b5f828152600260205260409020546001600160a01b0316610536813385610bd0565b6105535760405163c17c94d760e01b815260040160405180910390fd5b5f8381526009602052604081205460ff166001811115610575576105756110d5565b14610580575f610583565b60015b5f848152600960205260409020805460ff1916600183818111156105a9576105a96110d5565b02179055505f83815260096020526040908190205490517f79858d70c100386261fc938f9275c254aece088adcf78e2afd5cdb123c9818dc916105f39160ff9091169086906112bd565b60405180910390a1505050565b61060c33600654610c34565b600680545f908152600960205260408120805460ff1916905581549190610632836112ec565b91905055507ff2b290a76feb54be358b555507421d765609171aefa0646f109a653228ff81b83360016006546106689190611304565b604080516001600160a01b03909316835260208301919091520160405180910390a1565b60608160065481106106b15760405163d1038a6960e01b815260040160405180910390fd5b60605f5f8581526009602052604090205460ff1660018111156106d6576106d66110d5565b0361076b57600780546106e89061128b565b80601f01602080910402602001604051908101604052809291908181526020018280546107149061128b565b801561075f5780601f106107365761010080835404028352916020019161075f565b820191905f5260205f20905b81548152906001019060200180831161074257829003601f168201915b505050505090506107f7565b600880546107789061128b565b80601f01602080910402602001604051908101604052809291908181526020018280546107a49061128b565b80156107ef5780601f106107c6576101008083540402835291602001916107ef565b820191905f5260205f20905b8154815290600101906020018083116107d257829003601f168201915b505050505090505b60408051808201909152601d81527f646174613a6170706c69636174696f6e2f6a736f6e3b6261736536342c000000602082015261085c6108366102fe565b8360405160200161084892919061132e565b604051602081830303815290604052610c4d565b60405160200161086d929190611425565b6040516020818303038152906040529250505b50919050565b60606007805461030c9061128b565b60606008805461030c9061128b565b6001600160a01b039182165f90815260056020908152604080832093909416825291909152205460ff1690565b5f818152600260205260408120546001600160a01b0316806102f857604051637e27328960e01b8152600481018490526024016103e8565b61046b8383836001610c73565b5f828152600260205260408120546001600160a01b039081169083161561094257610942818486610d77565b6001600160a01b0381161561097c5761095d5f855f5f610c73565b6001600160a01b0381165f90815260036020526040902080545f190190555b6001600160a01b038516156109aa576001600160a01b0385165f908152600360205260409020805460010190555b5f8481526002602052604080822080546001600160a01b0319166001600160a01b0389811691821790925591518793918516917fddf252ad1be2c89b69c2b068fc378daa952ba7f163c4a11628f55a4df523b3ef91a490505b9392505050565b6001600160a01b038216610a3c57604051630b61174360e31b81526001600160a01b03831660048201526024016103e8565b6001600160a01b038381165f81815260056020908152604080832094871680845294825291829020805460ff191686151590811790915591519182527f17307eab39ab6107e8899845ad3d59bd9653f200f220920489ca2b5937696c31910160405180910390a3505050565b6001600160a01b0383163b15610bc957604051630a85bd0160e11b81526001600160a01b0384169063150b7a0290610aea908890889087908790600401611439565b6020604051808303815f875af1925050508015610b24575060408051601f3d908101601f19168201909252610b2191810190611475565b60015b610b8b573d808015610b51576040519150601f19603f3d011682016040523d82523d5f602084013e610b56565b606091505b5080515f03610b8357604051633250574960e11b81526001600160a01b03851660048201526024016103e8565b805160208201fd5b6001600160e01b03198116630a85bd0160e11b14610bc757604051633250574960e11b81526001600160a01b03851660048201526024016103e8565b505b5050505050565b5f6001600160a01b03831615801590610c2c5750826001600160a01b0316846001600160a01b03161480610c095750610c0984846108a4565b80610c2c57505f828152600460205260409020546001600160a01b038481169116145b949350505050565b6103bf828260405180602001604052805f815250610ddb565b60606102f8826040518060600160405280604081526020016114da604091396001610df2565b8080610c8757506001600160a01b03821615155b15610d48575f610c96846108d1565b90506001600160a01b03831615801590610cc25750826001600160a01b0316816001600160a01b031614155b8015610cd55750610cd381846108a4565b155b15610cfe5760405163a9fbf51f60e01b81526001600160a01b03841660048201526024016103e8565b8115610d465783856001600160a01b0316826001600160a01b03167f8c5be1e5ebec7d5bd14f71427d1e84f3dd0314c0f7b2291e5b200ac8c7c3b92560405160405180910390a45b505b50505f90815260046020526040902080546001600160a01b0319166001600160a01b0392909216919091179055565b610d82838383610bd0565b61046b576001600160a01b038316610db057604051637e27328960e01b8152600481018290526024016103e8565b60405163177e802f60e01b81526001600160a01b0383166004820152602481018290526044016103e8565b610de58383610f6d565b61046b335f858585610aa8565b606083515f03610e10575060408051602081019091525f8152610a03565b5f82610e4057600385516004610e269190611490565b610e319060026114a7565b610e3b91906114ba565b610e65565b600385516002610e5091906114a7565b610e5a91906114ba565b610e65906004611490565b90505f8167ffffffffffffffff811115610e8157610e81611169565b6040519080825280601f01601f191660200182016040528015610eab576020820181803683370190505b509050600185016020820187885189016020810180515f82525b82841015610f20576003840193508351603f8160121c168701518653600186019550603f81600c1c168701518653600186019550603f8160061c168701518653600186019550603f8116870151865350600185019450610ec5565b905250508515610f6157600388510660018114610f445760028114610f5757610f5f565b603d6001830353603d6002830353610f5f565b603d60018303535b505b50909695505050505050565b6001600160a01b038216610f9657604051633250574960e11b81525f60048201526024016103e8565b5f610fa283835f610916565b90506001600160a01b0381161561046b576040516339e3563760e11b81525f60048201526024016103e8565b6001600160e01b031981168114610fe3575f5ffd5b50565b5f60208284031215610ff6575f5ffd5b8135610a0381610fce565b5f81518084528060208401602086015e5f602082860101526020601f19601f83011685010191505092915050565b602081525f610a036020830184611001565b5f60208284031215611051575f5ffd5b5035919050565b80356001600160a01b038116811461106e575f5ffd5b919050565b5f5f60408385031215611084575f5ffd5b61108d83611058565b946020939093013593505050565b5f5f5f606084860312156110ad575f5ffd5b6110b684611058565b92506110c460208501611058565b929592945050506040919091013590565b634e487b7160e01b5f52602160045260245ffd5b6002811061110557634e487b7160e01b5f52602160045260245ffd5b9052565b602081016102f882846110e9565b5f60208284031215611127575f5ffd5b610a0382611058565b5f5f60408385031215611141575f5ffd5b61114a83611058565b91506020830135801515811461115e575f5ffd5b809150509250929050565b634e487b7160e01b5f52604160045260245ffd5b5f5f5f5f60808587031215611190575f5ffd5b61119985611058565b93506111a760208601611058565b925060408501359150606085013567ffffffffffffffff8111156111c9575f5ffd5b8501601f810187136111d9575f5ffd5b803567ffffffffffffffff8111156111f3576111f3611169565b604051601f8201601f19908116603f0116810167ffffffffffffffff8111828210171561122257611222611169565b604052818152828201602001891015611239575f5ffd5b816020840160208301375f6020838301015280935050505092959194509250565b5f5f6040838503121561126b575f5ffd5b61127483611058565b915061128260208401611058565b90509250929050565b600181811c9082168061129f57607f821691505b60208210810361088057634e487b7160e01b5f52602260045260245ffd5b604081016112cb82856110e9565b8260208301529392505050565b634e487b7160e01b5f52601160045260245ffd5b5f600182016112fd576112fd6112d8565b5060010190565b818103818111156102f8576102f86112d8565b5f81518060208401855e5f93019283525090919050565b683d913730b6b2911d1160b91b81525f61134b6009830185611317565b7f222c20226465736372697074696f6e223a22416e204e4654207468617420726581527f666c6563747320746865206d6f6f64206f6620746865206f776e65722c20313060208201526e018129037b71021b430b4b71091161608d1b60408201527f2261747472696275746573223a5b7b2274726169745f74797065223a20226d6f604f8201527f6f64696e657373222c202276616c7565223a203130307d5d2c2022696d616765606f82015262111d1160e91b608f8201526114116092820185611317565b61227d60f01b815260020195945050505050565b5f610c2c6114338386611317565b84611317565b6001600160a01b03858116825284166020820152604081018390526080606082018190525f9061146b90830184611001565b9695505050505050565b5f60208284031215611485575f5ffd5b8151610a0381610fce565b80820281158282048414176102f8576102f86112d8565b808201808211156102f8576102f86112d8565b5f826114d457634e487b7160e01b5f52601260045260245ffd5b50049056fe4142434445464748494a4b4c4d4e4f505152535455565758595a6162636465666768696a6b6c6d6e6f707172737475767778797a303132333435363738392b2fa26469706673582212205764953c195fc55501a0755a436f0f153461a90aaf8473854387e8ecac563f0764736f6c634300081c0033",
  "linkReferences": {},
  "deployedLinkReferences": {},
  "immutableReferences": {},
  "inputSourceName": "project/contracts/MoodNft.sol",
  "buildInfoId": "solc-0_8_28-db572a9fbe5739d9dea6c969c00f53731b24dc55"
}